:1000000016C030C02FC02EC02DC020C32BC02AC0A8
:1000100029C028C0ECC204C325C024C023C0EBC043
:10002000F7C038C15BC1CCC11FC267C28AC21124EC
:100030001FBECFE5D2E0DEBFCDBF10E0A0E6B0E04E
:10004000E8E0F7E002C005900D92A83FB107D9F7AC
:1000500021E0A8EFB0E001C01D92A730B207E1F7A0
:100060004AD050C3CDCF0F931F93FC010081118163
:1000700022813381B901A801032E3DE0440F551FB1
:10008000661F771F3A95D1F7302D042715272627AD
:100090003727B901A801032E31E176956795579569
:1000A00047953A95D1F7302D04271527262737276E
:1000B000B901A801440F551F661F771F440F551F34
:1000C000661F771F440F551F661F771F440F551F6C
:1000D000661F771F440F551F661F771FCB01BA019C
:1000E000602771278227932760837183828393839C
:1000F0001F910F91089587E393E1A0E0B0E0809312
:10010000030190930401A0930501B0930601EEEF63
:10011000F0E088E0808381838283838384838FE11E
:100120008093FD00F894479A87B38F6187BB18BA14
:100130008AB583608ABD83B7826083BF89B78A61CD
:1001400089BF8DE080BF82E08EBD88B7806488BFA4
:100150001FBC08B606FEFDCF1FBA1EBAE09A8DB3CB
:100160008093F8008091F800883010F01092F80029
:100170001CBA1FBA1EBA8091F8008F5F8DBBE29A3D
:10018000E19AE199FECF789440E010E030E021E080
:10019000CC24CA94F12CCEEFD0E00F2EF7EFEF2E47
:1001A000F02D6894332432F80F2EF3E0AF2EF02DAB
:1001B0000F2EFFE02F2EF02D0F2EFFE1DF2EF02D62
:1001C0006894992494F808E0BB24B3940F2EF5E0CA
:1001D0004F2E512C612C712CF02D88248394E091AA
:1001E000F8008E2F90E08830910508F0E5C1FC0101
:1001F000E15FFF4F0994222309F4DEC180EC88837C
:1002000089838A838B838C83D092FD002F2DD4C168
:10021000222369F0088309830A830B830C83D0921D
:10022000FD0008B606FC09C031E02F2DC5C108B697
:1002300006FEC2C1332391F001C031E088818F5F97
:10024000888389818F5F89838A818F5F8A838B818D
:100250008F5F8B838C818F5F8C830FC088818150EF
:1002600088838981815089838A8181508A838B81A7
:1002700081508B838C8181508C8388818850803F12
:1002800008F03B2584E18EBD88B7806488BF1FBC21
:100290002F2D92C1222369F0E882E982EA82EB8263
:1002A000EC82F092FD0008B606FC94C110E02F2D00
:1002B00083C108B606FE80C1E12FF0E0EF50FF4F8A
:1002C00080818093FD001F5F163008F010E0CEBCE7
:1002D00088B7806488BF1FBC2F2D6EC1222341F0D8
:1002E000088309830A830B830C83D092FD0031E0DD
:1002F00008B606FE5EC1103258F482E08093FD001D
:10030000E12FF0E0E05AFF4F808189831F5F50C0EA
:10031000103488F48BE18093FD00E12FF0E0E05A87
:10032000FF4FDF0190978C918883908199838B8315
:100330008C831F5F3DC01123A4F0D092FD00E12FFC
:10034000F0E0E05AFF4FDF0190978C918883908115
:100350009983E054F10990819A838B838C831F5F8A
:1003600027C0103A90F48DE18093FD00812F90E03A
:10037000805A9F4FFC01B09720812883B0978081DD
:100380008A832B832C831F5F13C0103C50F4309260
:10039000FD00E12FF0E0E05EFF4F80818A831F5F68
:1003A00007C01F3F21F0F092FD001F5F01C010E069
:1003B00087E08EBD88B7806488BF1FBC2F2DFCC02E
:1003C000222371F0088309830A830B830C83B09284
:1003D000FD0008B606FC0AC040E031E02F2DECC05D
:1003E00008B606FEE9C0332399F002C040E031E0D0
:1003F00088818F5F888389818F5F89838A818F5FFE
:100400008A838B818F5F8B838C818F5F8C830FC0FE
:100410008881815088838981815089838A81815034
:100420008A838B8181508B838C8181508C838881DE
:10043000883080F483E091E016DEA301920140D180
:10044000462F882D01C0880F6A95EAF78093FD003A
:1004500031E003C0883F08F030E0BEBC88B780645C
:1004600088BF1FBC2F2DA8C0222341F00883098319
:100470000A830B830C83D092FD0031E008B606FEA0
:100480009AC0103250F49092FD00E12FF0E0E05A53
:10049000FF4F80818C831F5F29C011238CF0D09285
:1004A000FD00E12FF0E0E05AFF4FDF0190978C91C3
:1004B000888389838A838B8380818C831F5F16C0A6
:1004C000103A68F42092FD00E12FF0E0E05CFF4F6D
:1004D0008081888389838A838B831F5F07C01F3F46
:1004E00021F0F092FD001F5F01C010E0AEBC88B7A4
:1004F000806488BF1FBC2F2D5FC0222369F0E88273
:10050000E982EA82EB82EC82F092FD0008B606FCFA
:1005100065C010E02F2D50C008B606FE4DC0E12F7B
:10052000F0E0E351FF4F80818093FD001F5F1430A6
:1005300008F010E0CEBC88B7806488BF1FBC2F2DA8
:100540003BC0222371F0E882E982EA82EB82EC82EE
:10055000F092FD0008B606FC45C040E010E02F2DEB
:100560002BC008B606FE28C0E12FF0E0E052FF4F96
:1005700080818093FD001C3020F0443089F04F5F73
:1005800011C0812F8D7F813011F0153011F41F5F64
:1005900009C0413019F41F5F40E004C04F5F02C042
:1005A00040E010E0CEBC88B7806488BF1FBC2F2D10
:1005B00003C02F2D01C02F2D8091FD00982F937027
:1005C0009093FB00982F9C709093FC008071809317
:1005D000FA0005CEB092FD0011E079CEA092FD00A8
:1005E00011E0A8CF3092FD0040E010E0D7CF1F927D
:1005F0000F920FB60F9211248F938091F9008130E2
:1006000031F018F0823029F005C0C09803C0C298BC
:1006100001C0C4988F910F900FBE0F901F90189536
:100620001F920F920FB60F9211248F938091F900B1
:10063000882319F0813019F003C0C19801C0C39814
:100640008F910F900FBE0F901F9018951F920F92D1
:100650000FB60F9211248F93EF93FF938091F900BF
:10066000813071F018F08230C1F022C08091FC001E
:1006700088BB8091020189BD81E08093F90018C098
:100680008091FA0088BBEEEFF0E0808189BD818126
:1006900088BD82E08093F9000BC08091FB0088BB8D
:1006A000EEEFF0E0828189BD838188BD1092F90070
:1006B000FF91EF918F910F900FBE0F901F901895A3
:1006C000A1E21A2EAA1BBB1BFD010DC0AA1FBB1F56
:1006D000EE1FFF1FA217B307E407F50720F0A21BC8
:1006E000B30BE40BF50B661F771F881F991F1A9435
:1006F00069F760957095809590959B01AC01BD015F
:08070000CF010895F894FFCF2A
:10070800080E14191F252B31363C42474D53585EAD
:1007180063686E73787D82878C91969A9FA3A8AC44
:10072800B0B4B8BCC0C4C7CBCED1D4D7DADDDFE211
:10073800E4E6E8EAECEEEFF1F2F3F4F5F6F6F7F7B3
:10074800F7F7F7F7F6F5F5F4F3F2F0EFEEECEAE881
:10075800E6E4E1DFDCD9D7D4D0CDCAC6C3BFBBB786
:10076800B3AFABA7A29E9995908B86817C77726D6B
:1007780067625C57514C46413B352F2A241C150FA4
:100788000410021004100200060906090003100CE8
:0807980010010210040810001A
:00000001FF
