:1000000016C030C02FC02EC02DC024C32BC02AC0A4
:1000100029C028C0F0C208C325C024C023C0EDC039
:10002000F9C03BC15EC1CFC123C26BC28EC21124D5
:100030001FBECFE5D2E0DEBFCDBF10E0A0E6B0E04E
:10004000E0E1F7E002C005900D92A83FB107D9F7B3
:1000500021E0A8EFB0E001C01D92A730B207E1F7A0
:100060004AD054C3CDCF0F931F93FC01008111815F
:1000700022813381B901A801032E3DE0440F551FB1
:10008000661F771F3A95D1F7302D042715272627AD
:100090003727B901A801032E31E176956795579569
:1000A00047953A95D1F7302D04271527262737276E
:1000B000B901A801440F551F661F771F440F551F34
:1000C000661F771F440F551F661F771F440F551F6C
:1000D000661F771F440F551F661F771FCB01BA019C
:1000E000602771278227932760837183828393839C
:1000F0001F910F91089587E393E1A0E0B0E0809312
:10010000030190930401A0930501B0930601EEEF63
:10011000F0E088E0808381838283838384838FE11E
:100120008093FD00F894479A87B38F6187BB18BA14
:100130008AB583608ABD83B7826083BF89B78A61CD
:1001400089BF8DE080BF82E08EBD88B7806488BFA4
:100150001FBC08B606FEFDCF1FBA1EBAE09A8DB3CB
:100160008093F8008091F800883010F01092F80029
:100170001CBA1FBA1EBA8091F8008F5F8DBBE29A3D
:10018000E19AE199FECF789440E000E030E021E090
:10019000CC24CA94F12CCEEFD0E00F2EF7EFEF2E47
:1001A000F02D6894332431F80F2EF8E19F2EF02DB6
:1001B0000F2EF3E0BF2EF02D0F2EFBE12F2EF02D92
:1001C0000F2EFFE1DF2EF02D6894AA24A2F818E08C
:1001D0000F2EF5E04F2E512C612C712CF02D882420
:1001E0008394E091F8008E2F90E08830910508F01C
:1001F000E7C1FC01E15FFF4F0994222309F4E0C14C
:1002000080EC888389838A838B838C83D092FD00E2
:100210002F2DD6C1222369F0188319831A831B83DB
:100220001C83D092FD0008B606FC09C031E02F2DDA
:10023000C7C108B606FEC4C1332391F001C031E046
:1002400088818F5F888389818F5F89838A818F5FAF
:100250008A838B818F5F8B838C818F5F8C830FC0B0
:100260008881815088838981815089838A818150E6
:100270008A838B8181508B838C8181508C83888190
:100280008850803F10F081E0382784E18EBD88B728
:10029000806488BF1FBC2F2D93C1222369F0E882A0
:1002A000E982EA82EB82EC82F092FD0008B606FC5D
:1002B00095C100E02F2D84C108B606FE81C1E02F54
:1002C000F0E0EF50FF4F80818093FD000F5F06301C
:1002D00008F000E0CEBC88B7806488BF1FBC2F2D1B
:1002E0006FC1222341F0188319831A831B831C8357
:1002F000D092FD0031E008B606FE5FC1003258F42E
:1003000080E18093FD00E02FF0E0E05AFF4F808114
:1003100089830F5F50C0003488F48DE18093FD0025
:10032000E02FF0E0E05AFF4FDF0190978C91888337
:10033000908199838B838C830F5F3DC00023A4F051
:10034000D092FD00E02FF0E0E05AFF4FDF019097E0
:100350008C91888390819983E054F10990819A83EC
:100360008B838C830F5F27C0003A90F48FE08093DB
:10037000FD00802F90E0805A9F4FFC01B0972081B4
:100380002883B09780818A832B832C830F5F13C0CF
:10039000003C50F43092FD00E02FF0E0E05EFF4FB3
:1003A00080818A830F5F07C00F3F21F0F092FD002C
:1003B0000F5F01C000E087E08EBD88B7806488BF12
:1003C0001FBC2F2DFDC0222371F0188319831A83BF
:1003D0001B831C831093FD0008B606FC0AC040E096
:1003E00031E02F2DEDC008B606FEEAC0332399F0A8
:1003F00002C040E031E088818F5F888389818F5F10
:1004000089838A818F5F8A838B818F5F8B838C81C5
:100410008F5F8C830FC08881815088838981815050
:1004200089838A8181508A838B8181508B838C81DF
:1004300081508C838881883080F483E091E013DEE2
:10044000A301920141D1462F882D01C0880F6A95E2
:10045000EAF78093FD0031E003C0883F08F030E008
:1004600081E08EBD88B7806488BF1FBC2F2DA8C0D7
:10047000222341F0188319831A831B831C83D09293
:10048000FD0031E008B606FE9AC0003250F4A0929A
:10049000FD00E02FF0E0E05AFF4F80818C830F5F7A
:1004A00029C000238CF0D092FD00E02FF0E0E05A4C
:1004B000FF4FDF0190978C91888389838A838B8398
:1004C00080818C830F5F16C0003A68F42092FD0093
:1004D000E02FF0E0E05CFF4F8081888389838A838E
:1004E0008B830F5F07C00F3F21F0F092FD000F5F7D
:1004F00001C000E0BEBC88B7806488BF1FBC2F2D40
:100500005FC0222369F0E882E982EA82EB82EC8212
:10051000F092FD0008B606FC65C000E02F2D50C02B
:1005200008B606FE4DC0E02FF0E0E351FF4F80819A
:100530008093FD000F5F043008F000E0CEBC88B768
:10054000806488BF1FBC2F2D3BC0222371F0E8823E
:10055000E982EA82EB82EC82F092FD0008B606FCAA
:1005600045C040E000E02F2D2BC008B606FE28C095
:10057000E02FF0E0E052FF4F80818093FD000C30CF
:1005800020F0443089F04F5F11C0802F8D7F813083
:1005900011F0053011F40F5F09C0413019F40F5FFD
:1005A00040E004C04F5F02C040E000E0CEBC88B72E
:1005B000806488BF1FBC2F2D03C02F2D01C02F2D9D
:1005C0008091FD00982F98719093FB00982F937065
:1005D0009093FC0084708093FA0003CE1093FD008A
:1005E00001E078CE9092FD0001E0A8CF3092FD00AE
:1005F00040E000E0D7CF1F920F920FB60F92112468
:100600008F938091F900813031F018F0823029F019
:1006100005C0C39803C0C09801C0C2988F910F90C5
:100620000FBE0F901F9018951F920F920FB60F924A
:1006300011248F938091F900882319F0813019F0EB
:1006400003C0C49801C0C1988F910F900FBE0F9046
:100650001F9018951F920F920FB60F9211248F932F
:10066000EF93FF938091F900813071F018F08230A0
:10067000C1F022C08091FC0088BB8091020189BD3D
:1006800081E08093F90018C08091FA0088BBEEEFFA
:10069000F0E0808189BD818188BD82E08093F9008E
:1006A0000BC08091FB0088BBEEEFF0E0828189BD3A
:1006B000838188BD1092F900FF91EF918F910F9087
:1006C0000FBE0F901F901895A1E21A2EAA1BBB1BFC
:1006D000FD010DC0AA1FBB1FEE1FFF1FA217B3070E
:1006E000E407F50720F0A21BB30BE40BF50B661F24
:1006F000771F881F991F1A9469F7609570958095E8
:1007000090959B01AC01BD01CF010895F894FFCFF6
:10071000080E14191F252B31363C42474D53585EA5
:1007200063686E73787D82878C91969A9FA3A8AC3C
:10073000B0B4B8BCC0C4C7CBCED1D4D7DADDDFE209
:10074000E4E6E8EAECEEEFF1F2F3F4F5F6F6F7F7AB
:10075000F7F7F7F7F6F5F5F4F3F2F0EFEEECEAE879
:10076000E6E4E1DFDCD9D7D4D0CDCAC6C3BFBBB77E
:10077000B3AFABA7A29E9995908B86817C77726D63
:1007800067625C57514C46413B352F2A241C150F9C
:1007900002041004020410001209120900180403D4
:0807A00004081004020104002A
:00000001FF
